:100000000428FF3FFF3FFF3F03138312A001A1011C
:10001000831685018601073083129F0085018601C2
:100020003F30A2000030A3000630A4000030A5003D
:100030005B30A6000030A7004F30A8000030A900B8
:100040006630AA000030AB006D30AC000030AD006F
:100050007D30AE000030AF000730B0000030B1009E
:100060007F30B2000030B3006F30B4000030B50014
:100070006430F4000030F5002008F0002108F100A1
:10008000D320023085000130F400740803194D2894
:10009000F00DF10D7010FF3F46287008223F8400DC
:1000A000000886000D30FB00FF30FA00FB0B5928DA
:1000B0005C28FA0B59285628F330FA00FA0B5E2810
:1000C00000000A30F4000030F5002008F00021089C
:1000D000F100D3200A30F4000030F500D320780876
:1000E000F0007908F100043085000130F400740854
:1000F00003197F28F00DF10D7010FF3F782870086C
:10010000223F8400000886000D30FB00FF30FA001B
:10011000FB0B8B288E28FA0B8B288828F330FA00EB
:10012000FA0B902800000A30F4000030F500200897
:10013000F0002108F100D3207808F0007908F100E0
:10014000403085000130F40074080319AC28F00D2C
:10015000F10D7010FF3FA5287008223F84000008B1
:1001600086000D30FB00FF30FA00FB0BB828BB28DF
:10017000FA0BB828B528F330FA00FA0BBD280000B6
:10018000A00A0319A10A8030033AF000803021064A
:100190007002031DCD282008E73C0318D128A001D8
:1001A000A1013828D22803138312FD01F901F801B7
:1001B000710870040319003471087506FA00FA1BFF
:1001C000FD09FB01F51FE928F409F509F40A0319F3
:1001D000F50AF11FF028F009F109F00A0319F10AF4
:1001E00071087504FA00FA1B05292D217B181829BE
:1001F000FD1F0034F009F109F00A0319F10AF809AA
:10020000F909F80A0319F90A0034F51F1429F11B3A
:1002100010297108F9007008F800F101F001F828C0
:10022000F101F001F00A0034F109F009FB0AF528A8
:10023000F80A0319F90A74087802031DF8287508EA
:100240007902031DF828F901F801F00A0319F10AEF
:10025000F11FF8280000FF34080003138312710D0A
:10026000F80DF90D7408F8027508031C750FF902F2
:10027000F00DF10D0F30FC00710DF80DF90D740843
:10028000701C4829F8027508031C750FF9024D29E6
:10029000F80775080318750FF907F00DF10DFC0B41
:1002A0003C29701859297408F80775080318750F48
:1002B000F90700000800FF3FFF3FFF3FFF3FFF3F00
:02400E00783FF9
:00000001FF
